:03000000020648AD
:0C064800787FE4F6D8FD75816B02068F08
:1007C700253032643A253032642E253032640055A4
:0A07D700AA0100C0000400000003A6
:1007A900C10BC10CC10AC109015800015900025409
:0D07B9000000025A0000025600000153002B
:1007E100759850438E40538EFE53890F758BE87573
:0907F1008DFFC2ABD28ED2AC2206
:10081100438E805389F0758ACD758CD4C28DD28C6C
:03082100D2A92237
:04083F002DF8E6FFAB
:08084300200BFDD20B8F99225E
:10078400E55314600E1460142402701520B215751C
:1007940053012220B20BD2097553022230B20580D4
:0407A40000E4F55325
:0107A800222E
:10073300300908C209E4F559120824E55914600B7D
:1007430004700E20B50B755901800620B603755948
:0A07530002E559B40303E4F559224E
:0E082400E4F554F555F55AF55BF556F55722F7
:1006D4000557E55770020556C394E8E55694034060
:1006E40022E4F556F557055BE55B7002055A943C28
:1006F400E55A9400400DE4F55AF55B0555E555704F
:040704000205542274
:1005910078227C007D007BFF7A0779D67E007F047C
:1005A10012045278267C007D007BFF7A0779DA7E7F
:1005B100007F07120452E4F53DF53E7542FF754395
:1005C100077544C7855445855546855A47855B4817
:1005D100AE56AF57FC7D0A1204788E498F4A7B00D4
:1005E1007A00792D1200827B007A00792D12000E9B
:1005F100AE07E4FD74262DF8E6253EF53E0DBD0758
:10060100F3E4FDEDC39E500C742D2DF8E6253EF567
:100611003E0D80EFE53EF53DEE2408F525E4FD7441
:100621002212083F0DBD04F7E4FD742612083F0DA8
:10063100BD07F7E4FDEDC39E5008742D12083F0D70
:0706410080F3AF3D02084306
:100708001208111207E153B28B53B18BD2AF120703
:1007180033300C0DC20C120784E559B401031206DC
:0B072800D4300AEAC20A12059180E3F7
:03000B000207FAEF
:1007FA00C0E0C0D0D20C0558E558B40A05755800B7
:07080A00D20AD0D0D0E03289
:030023000208329E
:0D083200309902C299309802C298C20B3270
:10065400020708E493A3F8E493A34003F68001F2AD
:1006640008DFF48029E493A3F85407240CC8C333A7
:10067400C4540F4420C8834004F456800146F6DF76
:10068400E4800B01020408102040809007A9E47E56
:10069400019360BCA3FF543F30E509541FFEE4936B
:1006A400A360010ECF54C025E060A840B8E493A332
:1006B400FAE493A3F8E493A3C8C582C8CAC583CA5D
:1006C400F0A3C8C582C8CAC583CADFE9DEE780BE15
:0107C6000032
:10038200E709F608DFFA8046E709F208DFFA803E5D
:1003920088828C83E709F0A3DFFA8032E309F6084A
:1003A200DFFA8078E309F208DFFA807088828C83B2
:1003B200E309F0A3DFFA806489828A83E0A3F60866
:1003C200DFFA805889828A83E0A3F208DFFA804C40
:1003D20080D280FA80C680D4806980F28033801017
:1003E20080A680EA809A80A880DA80E280CA803380
:1003F20089828A83ECFAE493A3C8C582C8CCC583F8
:10040200CCF0A3C8C582C8CCC583CCDFE9DEE780C7
:100412000D89828A83E493A3F608DFF9ECFAA9F046
:10042200EDFB2289828A83ECFAE0A3C8C582C8CC9C
:10043200C583CCF0A3C8C582C8CCC583CCDFEADEB5
:10044200E880DB89828A83E493A3F208DFF980CC17
:1004520088F0EF60010E4E60C388F0ED2402B40410
:100462000050B9F582EB2402B4040050AF232345B7
:0604720082239003D27307
:10047800C2D5EC30E709B2D5E4C39DFDE49CFCEE9F
:1004880030E715B2D5E4C39FFFE49EFE120506C30C
:10049800E49DFDE49CFC800312050630D507C3E407
:0604A8009FFFE49EFE220E
:10002600E54E2442F8E6054E22783F300702784234
:10003600E475F00112055B0204AE2000EB7F2ED2C0
:10004600008018EF540F2490D43440D4FF30040BB2
:10005600EF24BFB41A0050032461FFE54F60021578
:100066004F0552E5527002055130070D783FE47591
:10007600F00112055BEF0204F402075D7403D20778
:100086008003E4C207F54E8B3F8A408941E4F54F71
:10009600F551F552E54F60077F2012006180F57536
:1000A60050FFC201C200C202C203C205C206C20894
:1000B60012002FFF700D3007057F00120072AF523D
:1000C600AE5122B4255FC2D5C20412002FFF24D040
:1000D600B40A00501A75F00A784F30D50508B6FFF5
:1000E6000106C6A426F620D5047002D20380D924C0
:1000F600CFB41A00EF5004C2E5D204020272D20154
:1001060080C6D20080C0D20280BCD2D580BAD205C9
:1001160080B47F201200612002077401B54F0040B1
:10012600F1120026FF12006102009AD208D2068060
:1001360095120026FB120026FA120026F94A4B7089
:100146000679437A037BFF20022EE54F602A7E0064
:100156008E827583001204C760060EEE655070F03D
:10016600C2D5EBC0E0EAC0E0E9C0E0EE1202B9D0C9
:10017600E0F9D0E0FAD0E0FB1204AEFF60AAEBC0D3
:10018600E0EAC0E0E9C0E0120061D0E02401F9D065
:10019600E03400FAD0E0FBE5500460DCD550D980AD
:1001A600877BFF7A0279B5D202809C79108002792A
:1001B60008C206C2088008D2D5790A8004790AC224
:1001C600D5E550047002F550E4FAFDFEFF12002654
:1001D600FC7B08200113120026FD7B1030000A125A
:1001E6000026FE120026FF7B20EC3382D592D550E6
:1001F60013C3E43000069FFFE49EFEE42001039D46
:10020600FDE49CFCE4CBF8C201EC700CCFCECDCC67
:10021600E824F8F870F38017C3EF33FFEE33FEEDF2
:1002260033FDEC33FCEB33FB994002FB0FD8E9EBD3
:10023600300105F8D0E0C448B201C0E00AEC4D4EEA
:100246004F78207B0070C2EAB5500040BCC0E01277
:1002560002BBD0F0D0E0200104C4C0E0C4B201C0AB
:10026600F012004AD0F0D5F0EB02009A12056B01AD
:10027600375301B15801084C01044201B54F01BD85
:0F0286004401BD49011D4301C35501A74601A70E
:100295004501A747036350010C2D01102E01332B97
:1002A500011423013120034C2A00CC480000012B06
:1002B5003F3F3F00790AA2D5200314300509B91044
:1002C500020404B9080104A2D52006025001042045
:1002D50002689202B54F005034C0E07F2030031908
:1002E5007F30A20272067205500F120312C202C2BB
:1002F50006C205C2087F30800F300503E9C0E01251
:100305000061300503D0E0F9D0E0B54FCC300517DA
:100315007F30B9100C1200617F583004077F788058
:1003250003B908031200613002057F2D0200617FC9
:10033500202008F87F2B2006F322920280CF286E1A
:10034500756C6C2900D2011200263001F8C20178C3
:100355004F30D50108F60200CC2D50434958120004
:10036500262403B405004001E490035E9312005275
:0D037500743A120052D203754F040201B118
:10000E00E4FFFE1204AE600C0FEF70010E09E970F2
:05001E00F20A80EF2250
:1004AE00BB010689828A83E0225002E722BBFE024C
:0904BE00E32289828A83E493227F
:1004C700BB010CE58229F582E5833AF583E02250EA
:1004D70006E92582F8E622BBFE06E92582F8E22234
:0D04E700E58229F582E5833AF583E493224E
:1004F400BB010689828A83F0225002F722BBFE01E7
:02050400F322E0
:10050600BC000BBE0029EF8DF084FFADF022E4CCD9
:10051600F875F008EF2FFFEE33FEEC33FCEE9DECA2
:10052600984005FCEE9DFE0FD5F0E9E4CEFD22EDE8
:10053600F8F5F0EE8420D21CFEADF075F008EF2F32
:10054600FFED33FD4007985006D5F0F222C398FD23
:050556000FD5F0EA22C0
:10055B00FAE6FB0808E6F925F0F618E6CA3AF622A1
:10056B00D083D082F8E4937012740193700DA3A31F
:10057B0093F8740193F5828883E473740293686033
:06058B00EFA3A3A380DF33
:10075D00EFB40A07740D120768740A309811A8993E
:10076D00B8130CC2983098FDA899C298B811F630FC
:07077D0099FDC299F59922D4
:00000001FF
