:030000000206767F
:0C067600787FE4F6D8FD75816D0206BDAA
:10081000253032643A253032642E2530326400555A
:0A082000AA0100C00004000000035C
:1007F000C10BC10CC10AC109015A00015B000256BC
:0D0800000000025C000002580000015500DD
:10084300438E805389F0758ACD758CD4C28DD28C3A
:03085300D2A92205
:10078700E55514600E1460142402701520B2157517
:1007970055012220B20BD2097555022230B20580CD
:0407A70000E4F55520
:0107AB00222B
:10073600300908C209E4F55B120856E55B14600B44
:1007460004700E20B50B755B01800620B603755B41
:0A07560002E55BB40303E4F55B2247
:0E085600E4F556F557F55CF55DF558F55922B9
:100702000559E55970020558C394E8E55894034029
:1007120022E4F558F559055DE55D7002055C943CEF
:10072200E55C9400400DE4F55CF55D0557E5577016
:040732000205562244
:1005910078227C007D007BFF7A08791F7E007F0432
:1005A10012045278267C007D007BFF7A0879237E35
:1005B100007F07120452E4F53DF53EF53FF5407525
:1005C10044FF754508754610855647855748855C33
:1005D10049855D4AAE58AF59FC7D0A1204788E4BAD
:1005E1008F4C7B007A00792D1200827B007A007992
:1005F1002D12000E8F3EE4F53F7426253FF8E625C7
:1006010040F540053FE53FB407EFE4F53FE53FC363
:10061100953E500E742D253FF8E62540F540053FE7
:1006210080EBE540F53DE53E2408F525E4F53F7412
:1006310022253FF8E6FF120003053FE53FC394047E
:1006410040EDE4F53F7426253FF8E6FF120003056F
:100651003FE53FC3940740EDE4F53FE53FC3953ED9
:10066100500E742D253FF8E6FF120003053F80EB85
:05067100AF3D02000393
:1007AC0012084312082A53B28B53B18BD2AF1207E3
:1007BC0036300C05C20C120787300AF2C20A120539
:0307CC009180EB2E
:03000B000207CF1A
:1007CF00C0E0C0D0C28DD20C055AE55AB40A0575E7
:1007DF005A00D20AE55BB40103120702D0D0D0E071
:0107EF0032D7
:02080D00C10D1B
:10082A00759850438E40538EFE53890F758BE87529
:09083A008DFFC2ABD28ED2AC22BC
:08000300200DFDD20D8F9922A2
:030023000208646C
:0D086400309902C299309802C298C20D323C
:100682000207ACE493A3F8E493A34003F68001F2DB
:1006920008DFF48029E493A3F85407240CC8C33379
:1006A200C4540F4420C8834004F456800146F6DF48
:1006B200E4800B01020408102040809007F0E47EE1
:1006C200019360BCA3FF543F30E509541FFEE4933D
:1006D200A360010ECF54C025E060A840B8E493A304
:1006E200FAE493A3F8E493A3C8C582C8CAC583CA2F
:1006F200F0A3C8C582C8CAC583CADFE9DEE780BEE7
:01080F0000E8
:10038200E709F608DFFA8046E709F208DFFA803E5D
:1003920088828C83E709F0A3DFFA8032E309F6084A
:1003A200DFFA8078E309F208DFFA807088828C83B2
:1003B200E309F0A3DFFA806489828A83E0A3F60866
:1003C200DFFA805889828A83E0A3F208DFFA804C40
:1003D20080D280FA80C680D4806980F28033801017
:1003E20080A680EA809A80A880DA80E280CA803380
:1003F20089828A83ECFAE493A3C8C582C8CCC583F8
:10040200CCF0A3C8C582C8CCC583CCDFE9DEE780C7
:100412000D89828A83E493A3F608DFF9ECFAA9F046
:10042200EDFB2289828A83ECFAE0A3C8C582C8CC9C
:10043200C583CCF0A3C8C582C8CCC583CCDFEADEB5
:10044200E880DB89828A83E493A3F208DFF980CC17
:1004520088F0EF60010E4E60C388F0ED2402B40410
:100462000050B9F582EB2402B4040050AF232345B7
:0604720082239003D27307
:10047800C2D5EC30E709B2D5E4C39DFDE49CFCEE9F
:1004880030E715B2D5E4C39FFFE49EFE120506C30C
:10049800E49DFDE49CFC800312050630D507C3E407
:0604A8009FFFE49EFE220E
:10002600E5502444F8E6055022784130070278442A
:10003600E475F00112055B0204AE2000EB7F2ED2C0
:10004600008018EF540F2490D43440D4FF30040BB2
:10005600EF24BFB41A0050032461FFE55160021576
:10006600510554E5547002055330070D7841E47587
:10007600F00112055BEF0204F40207607403D20775
:100086008003E4C207F5508B418A428943E4F55167
:10009600F553F554E55160077F2012006180F57530
:1000A60052FFC201C200C202C203C205C206C20892
:1000B60012002FFF700D3007057F00120072AF543B
:1000C600AE5322B4255FC2D5C20412002FFF24D03E
:1000D600B40A00501A75F00A785130D50508B6FFF3
:1000E6000106C6A426F620D5047002D20380D924C0
:1000F600CFB41A00EF5004C2E5D204020272D20154
:1001060080C6D20080C0D20280BCD2D580BAD205C9
:1001160080B47F201200612002077401B5510040AF
:10012600F1120026FF12006102009AD208D2068060
:1001360095120026FB120026FA120026F94A4B7089
:100146000679437A037BFF20022EE551602A7E0062
:100156008E827583001204C760060EEE655270F03B
:10016600C2D5EBC0E0EAC0E0E9C0E0EE1202B9D0C9
:10017600E0F9D0E0FAD0E0FB1204AEFF60AAEBC0D3
:10018600E0EAC0E0E9C0E0120061D0E02401F9D065
:10019600E03400FAD0E0FBE5520460DCD552D980A9
:1001A600877BFF7A0279B5D202809C79108002792A
:1001B60008C206C2088008D2D5790A8004790AC224
:1001C600D5E552047002F552E4FAFDFEFF12002650
:1001D600FC7B08200113120026FD7B1030000A125A
:1001E6000026FE120026FF7B20EC3382D592D550E6
:1001F60013C3E43000069FFFE49EFEE42001039D46
:10020600FDE49CFCE4CBF8C201EC700CCFCECDCC67
:10021600E824F8F870F38017C3EF33FFEE33FEEDF2
:1002260033FDEC33FCEB33FB994002FB0FD8E9EBD3
:10023600300105F8D0E0C448B201C0E00AEC4D4EEA
:100246004F78207B0070C2EAB5520040BCC0E01275
:1002560002BBD0F0D0E0200104C4C0E0C4B201C0AB
:10026600F012004AD0F0D5F0EB02009A12056B01AD
:10027600375301B15801084C01044201B54F01BD85
:0F0286004401BD49011D4301C35501A74601A70E
:100295004501A747036350010C2D01102E01332B97
:1002A500011423013120034C2A00CC480000012B06
:1002B5003F3F3F00790AA2D5200314300509B91044
:1002C500020404B9080104A2D52006025001042045
:1002D50002689202B551005034C0E07F2030031906
:1002E5007F30A20272067205500F120312C202C2BB
:1002F50006C205C2087F30800F300503E9C0E01251
:100305000061300503D0E0F9D0E0B551CC300517D8
:100315007F30B9100C1200617F583004077F788058
:1003250003B908031200613002057F2D0200617FC9
:10033500202008F87F2B2006F322920280CF286E1A
:10034500756C6C2900D2011200263001F8C20178C3
:100355005130D50108F60200CC2D50434958120002
:10036500262403B405004001E490035E9312005275
:0D037500743A120052D2037551040201B116
:10000E00E4FFFE1204AE600C0FEF70010E09E970F2
:05001E00F20A80EF2250
:1004AE00BB010689828A83E0225002E722BBFE024C
:0904BE00E32289828A83E493227F
:1004C700BB010CE58229F582E5833AF583E02250EA
:1004D70006E92582F8E622BBFE06E92582F8E22234
:0D04E700E58229F582E5833AF583E493224E
:1004F400BB010689828A83F0225002F722BBFE01E7
:02050400F322E0
:10050600BC000BBE0029EF8DF084FFADF022E4CCD9
:10051600F875F008EF2FFFEE33FEEC33FCEE9DECA2
:10052600984005FCEE9DFE0FD5F0E9E4CEFD22EDE8
:10053600F8F5F0EE8420D21CFEADF075F008EF2F32
:10054600FFED33FD4007985006D5F0F222C398FD23
:050556000FD5F0EA22C0
:10055B00FAE6FB0808E6F925F0F618E6CA3AF622A1
:10056B00D083D082F8E4937012740193700DA3A31F
:10057B0093F8740193F5828883E473740293686033
:06058B00EFA3A3A380DF33
:10076000EFB40A07740D12076B740A309811A89938
:10077000B8130CC2983098FDA899C298B811F630F9
:0707800099FDC299F59922D1
:00000001FF
