:030000000206767F
:0C067600787FE4F6D8FD7581550206BDC2
:10083400253032643A253032642E25303264005536
:0A084400AA0100C000040000000338
:1007A500C10AC10BC10C010E00C10DC109010F0029
:0C07B500020A000002080000020C000014
:10087C00438E805389F0758ACD758CD4C28DD28C01
:03088C00D2A922CC
:10088F00538EBF53890FE4F58B758DDCC28FD28EDB
:03089F00D2AB22B7
:10081A00300A04C20A050FE50FC39403400BE4F53E
:0A082A000FF50AF50BF508F5092299
:10074400050DE50D7002050CC394E8E50C94034017
:10075400240509E50970020508E4F50CF50DE50921
:10076400943CE5089400400D050BE50B7002050A66
:06077400E4F508F509227E
:1005910078237C007D007BFF7A0879437E007F040D
:1005A10012045278277C007D007BFF7A0879477E10
:1005B100007F07120452E4F53EF53FF540F5417521
:1005C10045FF754608754734850A48850B498508F6
:1005D1004A85094BAE0CAF0DFC7D0A1204788E4C96
:1005E1008F4D7B007A00792E1200827B007A007990
:1005F1002E1208678F3FE4F54074272540F8E62561
:1006010041F5410540E540B407EFE4F540E540C35D
:10061100953F500E742E2540F8E62541F5410540E1
:1006210080EBE541F53EE53F2408F526E4F540740D
:10063100232540F8E6FF1200030540E540C394047A
:1006410040EDE4F54074272540F8E6FF120003056C
:1006510040E540C3940740EDE4F540E540C3953FD4
:10066100500E742E2540F8E6FF120003054080EB82
:05067100AF3E02000392
:10077A0012087C12088F12084E90FE12E04440F0D4
:10078A0090FE10E04408F0D2AF300D05C20D1207FA
:0B079A00F53009F5C20912081A80EEC4
:03000B00020702E7
:10070200C0E0C0F0C083C082C0D075D000C000C0BD
:1007120001C002C003C004C005C006C007C28DD21A
:100722000D120744120591D007D006D005D004D08F
:1007320003D002D001D000D0D0D082D083D0F0D06C
:02074200E032A3
:03001B0002001EC2
:05001E00C28FD209327F
:0507C100C11001100051
:1007F500E51014600E1460142402701520A61575FA
:1008050010012220A60BD2107510022230A60580F9
:0408150000E4F510F6
:0108190022BC
:0707C600C10EC10F0111007B
:10084E00759850438E40538EFE53890F758BE87505
:09085E008DFFC2ABD28ED2AC2298
:08000300200EFDD20E8F9922A0
:0300230002000ECA
:0D000E00309902C299309802C298C20E3299
:1006820002077AE493A3F8E493A34003F68001F20D
:1006920008DFF48029E493A3F85407240CC8C33379
:1006A200C4540F4420C8834004F456800146F6DF48
:1006B200E4800B01020408102040809007A5E47E2C
:1006C200019360BCA3FF543F30E509541FFEE4933D
:1006D200A360010ECF54C025E060A840B8E493A304
:1006E200FAE493A3F8E493A3C8C582C8CAC583CA2F
:1006F200F0A3C8C582C8CAC583CADFE9DEE780BEE7
:0107CD00002B
:10038200E709F608DFFA8046E709F208DFFA803E5D
:1003920088828C83E709F0A3DFFA8032E309F6084A
:1003A200DFFA8078E309F208DFFA807088828C83B2
:1003B200E309F0A3DFFA806489828A83E0A3F60866
:1003C200DFFA805889828A83E0A3F208DFFA804C40
:1003D20080D280FA80C680D4806980F28033801017
:1003E20080A680EA809A80A880DA80E280CA803380
:1003F20089828A83ECFAE493A3C8C582C8CCC583F8
:10040200CCF0A3C8C582C8CCC583CCDFE9DEE780C7
:100412000D89828A83E493A3F608DFF9ECFAA9F046
:10042200EDFB2289828A83ECFAE0A3C8C582C8CC9C
:10043200C583CCF0A3C8C582C8CCC583CCDFEADEB5
:10044200E880DB89828A83E493A3F208DFF980CC17
:1004520088F0EF60010E4E60C388F0ED2402B40410
:100462000050B9F582EB2402B4040050AF232345B7
:0604720082239003D27307
:10047800C2D5EC30E709B2D5E4C39DFDE49CFCEE9F
:1004880030E715B2D5E4C39FFFE49EFE120506C30C
:10049800E49DFDE49CFC800312050630D507C3E407
:0604A8009FFFE49EFE220E
:10002600E5512445F8E60551227842300702784525
:10003600E475F00112055B0204AE2000EB7F2ED2C0
:10004600008018EF540F2490D43440D4FF30040BB2
:10005600EF24BFB41A0050032461FFE55260021575
:10006600520555E5557002055430070D7842E47582
:10007600F00112055BEF0204F40207CE7403D20707
:100086008003E4C207F5518B428A438944E4F55262
:10009600F554F555E55260077F2012006180F5752D
:1000A60053FFC201C200C202C203C205C206C20891
:1000B60012002FFF700D3007057F00120072AF553A
:1000C600AE5422B4255FC2D5C20412002FFF24D03D
:1000D600B40A00501A75F00A785230D50508B6FFF2
:1000E6000106C6A426F620D5047002D20380D924C0
:1000F600CFB41A00EF5004C2E5D204020272D20154
:1001060080C6D20080C0D20280BCD2D580BAD205C9
:1001160080B47F201200612002077401B5520040AE
:10012600F1120026FF12006102009AD208D2068060
:1001360095120026FB120026FA120026F94A4B7089
:100146000679437A037BFF20022EE552602A7E0061
:100156008E827583001204C760060EEE655370F03A
:10016600C2D5EBC0E0EAC0E0E9C0E0EE1202B9D0C9
:10017600E0F9D0E0FAD0E0FB1204AEFF60AAEBC0D3
:10018600E0EAC0E0E9C0E0120061D0E02401F9D065
:10019600E03400FAD0E0FBE5530460DCD553D980A7
:1001A600877BFF7A0279B5D202809C79108002792A
:1001B60008C206C2088008D2D5790A8004790AC224
:1001C600D5E553047002F553E4FAFDFEFF1200264E
:1001D600FC7B08200113120026FD7B1030000A125A
:1001E6000026FE120026FF7B20EC3382D592D550E6
:1001F60013C3E43000069FFFE49EFEE42001039D46
:10020600FDE49CFCE4CBF8C201EC700CCFCECDCC67
:10021600E824F8F870F38017C3EF33FFEE33FEEDF2
:1002260033FDEC33FCEB33FB994002FB0FD8E9EBD3
:10023600300105F8D0E0C448B201C0E00AEC4D4EEA
:100246004F78207B0070C2EAB5530040BCC0E01274
:1002560002BBD0F0D0E0200104C4C0E0C4B201C0AB
:10026600F012004AD0F0D5F0EB02009A12056B01AD
:10027600375301B15801084C01044201B54F01BD85
:0F0286004401BD49011D4301C35501A74601A70E
:100295004501A747036350010C2D01102E01332B97
:1002A500011423013120034C2A00CC480000012B06
:1002B5003F3F3F00790AA2D5200314300509B91044
:1002C500020404B9080104A2D52006025001042045
:1002D50002689202B552005034C0E07F2030031905
:1002E5007F30A20272067205500F120312C202C2BB
:1002F50006C205C2087F30800F300503E9C0E01251
:100305000061300503D0E0F9D0E0B552CC300517D7
:100315007F30B9100C1200617F583004077F788058
:1003250003B908031200613002057F2D0200617FC9
:10033500202008F87F2B2006F322920280CF286E1A
:10034500756C6C2900D2011200263001F8C20178C3
:100355005230D50108F60200CC2D50434958120001
:10036500262403B405004001E490035E9312005275
:0D037500743A120052D2037552040201B115
:10086700E4FFFE1204AE600C0FEF70010E09E97091
:05087700F20A80EF22EF
:1004AE00BB010689828A83E0225002E722BBFE024C
:0904BE00E32289828A83E493227F
:1004C700BB010CE58229F582E5833AF583E02250EA
:1004D70006E92582F8E622BBFE06E92582F8E22234
:0D04E700E58229F582E5833AF583E493224E
:1004F400BB010689828A83F0225002F722BBFE01E7
:02050400F322E0
:10050600BC000BBE0029EF8DF084FFADF022E4CCD9
:10051600F875F008EF2FFFEE33FEEC33FCEE9DECA2
:10052600984005FCEE9DFE0FD5F0E9E4CEFD22EDE8
:10053600F8F5F0EE8420D21CFEADF075F008EF2F32
:10054600FFED33FD4007985006D5F0F222C398FD23
:050556000FD5F0EA22C0
:10055B00FAE6FB0808E6F925F0F618E6CA3AF622A1
:10056B00D083D082F8E4937012740193700DA3A31F
:10057B0093F8740193F5828883E473740293686033
:06058B00EFA3A3A380DF33
:1007CE00EFB40A07740D1207D9740A309811A8995C
:1007DE00B8130CC2983098FDA899C298B811F6308B
:0707EE0099FDC299F5992263
:00000001FF
